:020000040800F2
:100000007006002065020008130E0008890D000824
:10001000110E00085B040008CD0E0008000000006F
:10002000000000000000000000000000170E0008A3
:100030005D04000800000000150E0008190E0008FD
:100040007F0200087F0200087F0200087F0200088C
:100050007F0200087F0200087F0200087F0200087C
:100060007F0200087F0200087F0200087F0200086C
:100070007F0200087F0200087F0200087F0200085C
:100080007F0200087F0200087F0200087F0200084C
:100090007F0200087F0200087F0200087F0200083C
:1000A0007F0200087F0200087F0200087F0200082C
:1000B0007F0200087F0200087F0200087F0200081C
:1000C0007F0200087F0200087F0200087F0200080C
:1000D0007F0200087F0200087F0200087F020008FC
:1000E0007F0200087F0200087F0200087F020008EC
:1000F0007F0200087F0200087F0200087F020008DC
:100100007F0200087F0200087F0200087F020008CB
:100110007F0200087F0200087F0200087F020008BB
:100120007F0200087F0200087F0200087F020008AB
:100130007F02000800000000000000007F020008AD
:100140007F0200087F0200087F0200087F0200088B
:100150007F0200087F0200087F0200087F0200087B
:100160007F0200087F0200087F0200087F0200086B
:100170007F0200087F0200087F02000800000000E4
:10018000000000007F0200080000000000000000E6
:100190007F02000800000000000000007F0200084D
:1001A0000000000000000000000000007F020008C6
:1001B0007F0200087F0200087F0200087F0200081B
:1001C0007F02000800F002F800F03CF80AA090E876
:1001D000000C82448344AAF10107DA4501D100F002
:1001E00031F8AFF2090EBAE80F0013F0010F18BF93
:1001F000FB1A43F0010318474C0D00006C0D000082
:10020000103A24BF78C878C1FAD8520724BF30C842
:1002100030C144BF04680C60704700000023002414
:1002200000250026103A28BF78C1FBD8520728BF06
:1002300030C148BF0B6070471FB500F075FE1FBD91
:1002400010B510BD00F0CFF81146FFF7F5FF00F034
:100250004FFE00F0EDF803B4FFF7F2FF03BC00F02F
:10026000F5F800000948804709480047FEE7FEE727
:10027000FEE7FEE7FEE7FEE7FEE7FEE7FEE7FEE756
:1002800004480549054A064B70470000BD0E0008AA
:10029000C5010008700000207006002070020020D8
:1002A0007002002053EA020C00F069802DE9F04B47
:1002B0004FF00006002B1FBFB3FA83F503FA05F4D5
:1002C00024FA05F65E4012BF1643B2FA82F502FA2E
:1002D00005F4C5F120051EBF22FA05FC44EA0C0412
:1002E000203556EA044C4FEA144418BF641C4FF002
:1002F00000084FF00009904271EB030C39D300293C
:1003000019BFB1FA81F701FA07F6B0FA80F700FADF
:1003100007F6C7F120071EBF20FA07FC46EA0C06C5
:100320002037B6FBF4FCA7EB0507103F07F01F0BC7
:10033000CBF120060CFA0BFB2CFA06F644BFB346B1
:100340000026202FA4BF5E464FF0000B5BEA060C90
:1003500008BF4FF0010B19EB0B09ABFB027C48EB1C
:100360000608C01B06FB02CC0BFB03CC71EB0C0197
:10037000C1E70B46024641464846BDE8F08B13B53F
:100380004FF000004FF00001AFF30080BDE81C40CB
:1003900070474FF0000200B5134694469646203948
:1003A00022BFA0E80C50A0E80C50B1F12001BFF42E
:1003B000F7AF090728BFA0E80C5048BF0CC05DF894
:1003C00004EB890028BF40F8042B08BF704748BFE2
:1003D00020F8022B11F0804F18BF00F8012B704756
:1003E000704770477047754600F02CF8AE46050020
:1003F0006946534620F00700854618B020B5FFF740
:100400003FFFBDE820404FF000064FF000074FF0DF
:1004100000084FF0000B21F00701AC46ACE8C00922
:10042000ACE8C009ACE8C009ACE8C0098D4670472B
:1004300010B50446AFF300802046BDE81040FFF73A
:100440000ABF000000487047100000200149182032
:10045000ABBEFEE7260002007047FEE770470000D3
:1004600070B5044600F002F90546601C02D004484D
:100470000078044400F0FAF8401BA042FAD370BDA3
:10048000000000202DE9F84FDFF8ACA10022012484
:1004900003254FF00F090AF1040BAAF1040E00BF67
:1004A0000B6804FA02F63340B3426ED10F7907F0BD
:1004B0000307012F01D0022F16D187684FEA4208A7
:1004C00005FA08FC27EA0C07D1F80CC00CFA08FC66
:1004D0004CEA070CC0F808C04768B7430E79C6F36A
:1004E000001696403E4346600E79F643B6070AD0A2
:1004F000C6684FEA420C05FA0CF7BE438F6807FA4C
:100500000CF73743C7600E7906F00306022E10D1B0
:10051000D60800EB8608D8F8206057074FEAD76C5A
:1005200009FA0CF7BE430F6907FA0CF73743C8F80E
:10053000207006684FEA420C05FA0CF7BE430F79AB
:1005400007F0030707FA0CF7374307604E6816F405
:10055000403F6BD0394E376847F480473760366884
:1005600022F0030706F480460096354E07EB060C92
:10057000DCF8086897074FEA177809FA08F7BE43CE
:10058000304FB84202D100271FE04FE02E4FB84253
:1005900001D1012719E02D4FB84201D1022714E003
:1005A0002B4FB84201D103270FE02A4FB84201D1A7
:1005B00004270AE0284FB84201D1052705E0274F5C
:1005C000B84201D1062700E0072707FA08F73743AA
:1005D000CCF80878DAF800605746D1F804C09E439A
:1005E0005FEACC2C00D51E433E60DBF800605F461E
:1005F000D1F804C09E435FEA8C2C00D51E433E60B8
:10060000DEF800607746D1F804C09E435FEA8C3C78
:1006100000D51E433E60084F083F3E68D1F804C035
:100620009E435FEACC3C00D51E433E60521C102A1C
:10063000FFF436AFBDE8F88F083C01404438024073
:100640000030014000000240000402400008024067
:10065000000C02400010024000140240001802404A
:100660000AB1816170470904FBE700000148806816
:1006700070470000000000200248816802781144A1
:1006800081607047000000200B4810B5016841F4FC
:1006900000710160016841F480610160016841F40A
:1006A00080710160032000F061F80F2000F006F86F
:1006B00000F024F8002010BD003C024070B50D4D44
:1006C00004464FF47A712878B1FBF0F00A490968C2
:1006D000B1FBF0F000F044FB48B9102C07D2002227
:1006E0002146501E00F022F800206C6070BD0120F1
:1006F00070BD0000000000200C0000200A4808B572
:10070000016841F480410160006800F4804000907D
:100710000548001F016841F080510160006800F049
:100720008050009008BD000044380240F0B40E4BE9
:100730001B680C46C3F30223C3F10705042D00D93F
:100740000425191D072901D2002300E0DB1E012624
:1007500006FA05F1491E214099409E40761E16403A
:100760003143F0BC00F0B3BB0CED00E0064900F0F3
:10077000070208684FF6FF03184040EA0220034AC8
:1007800010430860704700000CED00E00000FA051F
:100790002DE9F8431748016841F080510160006875
:1007A000154F00F08050012600903E64FFF75EFF79
:1007B00005464FF47A78114C05E000BFFFF756FF6D
:1007C000401B40450DD86068C003F7D57E64FFF735
:1007D0004DFF0546464607E0FFF748FF401BB04285
:1007E00002D90320BDE8F88360688003F4D50020B7
:1007F000F8E700004038024000000E420070004060
:100800002DE9F0470E46050065D0DFF81481D8F8D1
:100810000000F7B200F00F00B04207D288F8007075
:10082000D8F8000000F00F00B04254D128683D4CC9
:10083000810712D5400703D5206840F4E0502060BE
:100840002878000703D5206840F4604020602068C5
:10085000A96820F0F000084320602878C0072DD058
:10086000304968680839012812D0022813D00328BB
:1008700011D00968890700292DDA216821F00301C8
:1008800001432160FFF7F2FE814641F2883A0EE013
:1008900009688903EFE709688901ECE7FFF7E6FEDD
:1008A000A0EB0901514502D90320BDE8F08720687B
:1008B000696800F00C00B0EB810FEFD1D8F80010A0
:1008C000404601F00F01B14207D90770006800F0FF
:1008D0000F00B04201D00120E7E72878400705D596
:1008E0002068E96820F4E050084320602878000779
:1008F00006D52068296920F4604040EAC1002060E4
:1009000000F018F82168084AC1F30311515CC8408F
:100910000649086006480068FFF7D0FE0020C4E7DB
:10092000003C024008380240320F00080C00002052
:1009300004000020224810B5006810F00C02214885
:1009400015D04110042A11D01D4C241F082A0FD0A5
:100950000C2A0CD12268236802F03F025B0221D5E9
:100960002068C0F38810A0FB010120E0084610BDFC
:100970002268236802F03F025B0205D52068C0F3BD
:100980008810A0FB010104E02168C1F38811A1FBDC
:1009900000010023FFF786FC2168C1F30141491CD7
:1009A00049000AE02168C1F38811A1FB000100237E
:1009B000FFF778FC2168C1F30271B0FBF1F010BDC4
:1009C000083802400024F4002DE9F84F04007DD0DF
:1009D000DFF878B32078ABF10407C007A7F104056E
:1009E00050D0DBF800105846C1F3810101290FD027
:1009F0000168C1F38101022902D13968490207D493
:100A00000068C0F38100032809D13868400206D588
:100A10002868800336D560680028D8D032E0606846
:100A2000B0F5803F10D0B0F5A02F286810D020F48A
:100A300080302860286820F4802028606068A0B199
:100A4000FFF714FE06460CE0286840F48030F4E717
:100A500040F480202860F7E7FFF708FE801B642839
:100A600076D828688003F7D50CE0FFF7FFFD06462F
:100A700005E000BFFFF7FAFD801B6428F0D8286866
:100A80008003F7D42078DFF8C89280074FF0000A7F
:100A900044D5DBF80010584611F00C0F0FD0016858
:100AA000C1F38101022902D13968490207D50068E2
:100AB000C0F3810003280AD13868400207D42868AF
:100AC000800715D5E068012800D111E03AE1E0681F
:100AD000B0B10120C9F80000FFF7C8FD064604E0E8
:100AE000FFF7C4FD801B0228BAD828688007F7D515
:100AF0002868216920F0F80040EAC10028600DE074
:100B0000C9F800A0FFF7B2FD064604E0FFF7AEFD0E
:100B1000801B02281CD828688007F7D4207800079B
:100B200027D5DFF828828B48616908F16C0881B10C
:100B300001210160FFF79AFD064604E0FFF796FDEC
:100B4000801B022804D8D8F800008007F6D510E0F2
:100B500089E0C0F800A0FFF789FD064605E000BF68
:100B6000FFF784FD801B02287DD8D8F8000080079D
:100B7000F6D42078400769D574484FF00008383023
:100B80000068C0000BD471483830016841F08051D2
:100B9000016000684FF0010800F0805000906E4E38
:100BA0003068C00511D4306840F480703060FFF7C1
:100BB0005DFD009006E000BFFFF758FD0099401A68
:100BC000022850D83068C005F6D5604EA068683657
:100BD00001280FD00528306810D020F001003060C7
:100BE000306820F004003060A068B8B1FFF73EFD27
:100BF00000900FE0306840F00100F4E740F004009E
:100C00003060F7E7FFF732FD0099411A41F2883072
:100C1000814264D830688007F4D50EE0FFF726FDE6
:100C2000009007E0FFF722FD0099411A41F2883059
:100C3000814254D830688007F4D4B8F1000F05D051
:100C400042483830016821F080510160A069A8B3A2
:100C5000DBF80010C1F38101022947D00228C9F84E
:100C600060A005D000E03AE0FFF700FD044639E05F
:100C7000FFF7FCFC064604E0FFF7F8FC801B0228A7
:100C80002DD828688001F7D4F4E907010843E1680A
:100C9000324A490802EB0141A26841EA8211084345
:100CA000217C40EA0160217D40EA0170386001202A
:100CB000C9F86000FFF7DAFC044606E044E000BF34
:100CC000FFF7D4FC001B022809D828688001F7D55B
:100CD0003AE000BFFFF7CAFC001B022802D903203C
:100CE000BDE8F88F28688001F4D42DE00128F7D002
:100CF0003868E26900F48001914223D1226A00F051
:100D00003F0191421ED147F6C071626A0140B1EBCA
:100D1000821F17D1A26A4FF0FF3300F4403103EB7A
:100D20005202B1EB024F0DD194F82C2000F070610B
:100D3000B1EB026F06D194F8301000F0E040B0EB58
:100D4000017F01D00120CBE70020C9E7083802402D
:100D500000004742800E4742007000400000FFFF45
:100D600010B5401EB0F1807F01D3012010BD4FF0BF
:100D7000E02460610F21601700F0A9F80020A06155
:100D800007202061002010BDFEE7000030B587B0CD
:100D900014216846FFF7FDFA1A480024016841F063
:100DA00004010160016801F004010591016841F04E
:100DB00080010160016801F080010591016841F046
:100DC000010101600068104D00F001000590002253
:100DD00020212846FFF744FC4FF40050CDE90004E1
:100DE00069460A480294FFF74DFB2020009001203D
:100DF000CDE90104694628460394FFF743FB07B099
:100E000030BD0000303802400000024000080240BF
:100E1000FEE7FEE770477047FFF72EBC30B593B092
:100E200034216846FFF7B5FA14210DA8FFF7B1FA8F
:100E300020480025016841F080510160006800F001
:100E4000805012901C48016841F4404101600068E4
:100E5000022400F4404012900120039010200490DE
:100E6000009406940820CDE90750B420CDE9090488
:100E70000B9468460C94FFF7A7FD08B172B6FEE725
:100E8000FFF786FC08B172B6FEE70DA90F2081E8D6
:100E900031004FF4A05010904FF480501190052174
:100EA0000DA8FFF7ADFC002801D072B6FEE713B025
:100EB00030BD000040380240007000400248016828
:100EC00041F470010160704788ED00E0FEE709071A
:100ED000090E002804DB00F1E02080F800147047C0
:100EE00000F00F0000F1E02080F8141D70470000B2
:100EF000FFF7CAFBFFF792FFFFF748FF094D41F2EA
:100F00008834002220212846FFF7AAFB2046FFF75D
:100F1000A7FA012220212846FFF7A2FB2046FFF76F
:100F20009FFAEEE7000002404FF04070E1EE100A39
:100F300070470000000000000000010203040607E3
:100F400008090000640F00080000002010000000E5
:100F500000020008740F0008100000206006000066
:100F60001C0200080100000010000000000000004A
:040F70000024F40065
:04000005080001C529
:00000001FF
